:1009E500454E5445522050494E204E554D42455294
:1009F500205E5F5E0050494E20434F52524543549E
:100A050000444F4F52204F50454E45440057524FDA
:070A15004E472050494E003E
:080ABF00060D3132333435001D
:0F0997007F0F120AA37F38120AA37F01120AA34F
:1009A600E4F513F5147F80120AA37BFF7A0979E533
:1009B600120A1C120A7F7FC0120AA3740D2514F8AE
:1009C600E6601712080074082514F8A607120A7FB5
:0D09D6000514E51470E5051380E1120925F4
:0209E30080C1D1
:090A7A007F2A120AB17FE87E0315
:100A8300E4FDFCC3ED9FEC9E5015E4FBFA0BBB00A9
:0F0A9300010AEB640A4A70F50DBD00010C80E406
:010AA2002231
:0E0AA3008F90C2B5C2B6D2B7120A7FC2B72278
:0E0AB1008F90D2B5C2B6D2B7120A7FC2B7225A
:060A1C008B158A168917F4
:100A2200E4F518F519AB15AA16A9178519828518C8
:100A320083120A4DFF600D120AB10519E51970E51E
:0B0A4200051880E17F107E27020A8368
:10080000E4FFFEEF4E6003020898C2A0D2A1D2A27C
:10081000D2A320B006120A7A7F312220B106120A32
:100820007A7F322220B206120A7A7F3322D2A0C205
:10083000A1D2A2D2A320B006120A7A7F342220B11C
:1008400006120A7A7F352220B206120A7A7F3622F1
:10085000D2A0D2A1C2A2D2A320B006120A7A7F37B8
:100860002220B106120A7A7F382220B206120A7AB2
:100870007F3922D2A0D2A1D2A2C2A320B006120AEE
:100880007A7F2A2220B106120A7A7F302230B20300
:08089000020803120A7A7F231B
:01089800223D
:10092500E50D65087050E50E6509704AE50F650A25
:100935007044E510650B703EE511650C7038120AC0
:100945007F7F01120AA37F81120AA37BFF7A0979AF
:10095500FA120A1C120A7FD2B3C2B47FC1120AA3CB
:100965007BFF7A0A7906120A1C7F107E27120A83FA
:10097500D2B3C2B480167F01120AA37F80120AA3E4
:100985007BFF7A0A7912120A1C120A7F7F01120A6A
:02099500A3229B
:030000000208995A
:0C089900787FE4F6D8FD7581190208E0B4
:100A4D00BB010CE58229F582E5833AF583E022505E
:100A5D0006E92582F8E622BBFE06E92582F8E222A8
:0D0A6D00E58229F582E5833AF583E49322C2
:1008A500020997E493A3F8E493A34003F68001F2C9
:1008B50008DFF48029E493A3F85407240CC8C33354
:1008C500C4540F4420C8834004F456800146F6DF23
:1008D500E4800B0102040810204080900ABFE47EEA
:1008E500019360BCA3FF543F30E509541FFEE49318
:1008F500A360010ECF54C025E060A840B8E493A3DF
:10090500FAE493A3F8E493A3C8C582C8CAC583CA09
:10091500F0A3C8C582C8CAC583CADFE9DEE780BEC1
:010AC700002E
:00000001FF
